{
  "contractName": "HumanStandardToken",
  "abi": [
    {
      "constant": true,
      "inputs": [],
      "name": "totalNum",
      "outputs": [
        {
          "name": "",
          "type": "uint256"
        }
      ],
      "payable": false,
      "stateMutability": "view",
      "type": "function"
    },
    {
      "constant": true,
      "inputs": [],
      "name": "name",
      "outputs": [
        {
          "name": "",
          "type": "string"
        }
      ],
      "payable": false,
      "stateMutability": "view",
      "type": "function"
    },
    {
      "constant": false,
      "inputs": [
        {
          "name": "_spender",
          "type": "address"
        },
        {
          "name": "_value",
          "type": "uint256"
        }
      ],
      "name": "approve",
      "outputs": [
        {
          "name": "success",
          "type": "bool"
        }
      ],
      "payable": false,
      "stateMutability": "nonpayable",
      "type": "function"
    },
    {
      "constant": false,
      "inputs": [
        {
          "name": "_from",
          "type": "address"
        },
        {
          "name": "_to",
          "type": "address"
        },
        {
          "name": "_value",
          "type": "uint256"
        }
      ],
      "name": "transferFrom",
      "outputs": [
        {
          "name": "success",
          "type": "bool"
        }
      ],
      "payable": false,
      "stateMutability": "nonpayable",
      "type": "function"
    },
    {
      "constant": true,
      "inputs": [],
      "name": "decimals",
      "outputs": [
        {
          "name": "",
          "type": "uint8"
        }
      ],
      "payable": false,
      "stateMutability": "view",
      "type": "function"
    },
    {
      "constant": true,
      "inputs": [],
      "name": "version",
      "outputs": [
        {
          "name": "",
          "type": "string"
        }
      ],
      "payable": false,
      "stateMutability": "view",
      "type": "function"
    },
    {
      "constant": true,
      "inputs": [
        {
          "name": "_owner",
          "type": "address"
        }
      ],
      "name": "balanceOf",
      "outputs": [
        {
          "name": "balance",
          "type": "uint256"
        }
      ],
      "payable": false,
      "stateMutability": "view",
      "type": "function"
    },
    {
      "constant": true,
      "inputs": [],
      "name": "symbol",
      "outputs": [
        {
          "name": "",
          "type": "string"
        }
      ],
      "payable": false,
      "stateMutability": "view",
      "type": "function"
    },
    {
      "constant": false,
      "inputs": [
        {
          "name": "_to",
          "type": "address"
        },
        {
          "name": "_value",
          "type": "uint256"
        }
      ],
      "name": "transfer",
      "outputs": [
        {
          "name": "success",
          "type": "bool"
        }
      ],
      "payable": false,
      "stateMutability": "nonpayable",
      "type": "function"
    },
    {
      "constant": true,
      "inputs": [],
      "name": "deployer",
      "outputs": [
        {
          "name": "",
          "type": "address"
        }
      ],
      "payable": false,
      "stateMutability": "view",
      "type": "function"
    },
    {
      "constant": true,
      "inputs": [
        {
          "name": "_owner",
          "type": "address"
        },
        {
          "name": "_spender",
          "type": "address"
        }
      ],
      "name": "allowance",
      "outputs": [
        {
          "name": "remaining",
          "type": "uint256"
        }
      ],
      "payable": false,
      "stateMutability": "view",
      "type": "function"
    },
    {
      "inputs": [
        {
          "name": "_decimalUnits",
          "type": "uint8"
        }
      ],
      "payable": false,
      "stateMutability": "nonpayable",
      "type": "constructor"
    },
    {
      "anonymous": false,
      "inputs": [
        {
          "indexed": true,
          "name": "_from",
          "type": "address"
        },
        {
          "indexed": true,
          "name": "_to",
          "type": "address"
        },
        {
          "indexed": false,
          "name": "_value",
          "type": "uint256"
        }
      ],
      "name": "Transfer",
      "type": "event"
    },
    {
      "anonymous": false,
      "inputs": [
        {
          "indexed": true,
          "name": "_owner",
          "type": "address"
        },
        {
          "indexed": true,
          "name": "_spender",
          "type": "address"
        },
        {
          "indexed": false,
          "name": "_value",
          "type": "uint256"
        }
      ],
      "name": "Approval",
      "type": "event"
    },
    {
      "constant": false,
      "inputs": [
        {
          "name": "headline",
          "type": "string"
        },
        {
          "name": "class",
          "type": "uint32"
        },
        {
          "name": "ipfsAddress",
          "type": "string"
        }
      ],
      "name": "post",
      "outputs": [],
      "payable": false,
      "stateMutability": "nonpayable",
      "type": "function"
    },
    {
      "constant": true,
      "inputs": [
        {
          "name": "articleID",
          "type": "uint256"
        }
      ],
      "name": "readById",
      "outputs": [
        {
          "name": "",
          "type": "string"
        },
        {
          "name": "",
          "type": "address"
        },
        {
          "name": "",
          "type": "uint32"
        },
        {
          "name": "",
          "type": "string"
        },
        {
          "name": "",
          "type": "uint256"
        },
        {
          "name": "",
          "type": "uint256"
        }
      ],
      "payable": false,
      "stateMutability": "view",
      "type": "function"
    },
    {
      "constant": true,
      "inputs": [
        {
          "name": "owner",
          "type": "address"
        }
      ],
      "name": "getOwnedArticle",
      "outputs": [
        {
          "name": "",
          "type": "uint256[]"
        }
      ],
      "payable": false,
      "stateMutability": "view",
      "type": "function"
    },
    {
      "constant": false,
      "inputs": [
        {
          "name": "articleID",
          "type": "uint256"
        }
      ],
      "name": "like",
      "outputs": [
        {
          "name": "",
          "type": "uint256"
        }
      ],
      "payable": false,
      "stateMutability": "nonpayable",
      "type": "function"
    },
    {
      "constant": false,
      "inputs": [
        {
          "name": "articleID",
          "type": "uint256"
        }
      ],
      "name": "unlike",
      "outputs": [
        {
          "name": "",
          "type": "uint256"
        }
      ],
      "payable": false,
      "stateMutability": "nonpayable",
      "type": "function"
    }
  ],
  "bytecode": "0x60806040526040805190810160405280600581526020017f4857302e310000000000000000000000000000000000000000000000000000008152506005908051906020019062000051929190620001ca565b503480156200005f57600080fd5b50604051602080620019dc8339810180604052810190808051906020019092919050505033600660006101000a81548173ffffffffffffffffffffffffffffffffffffffff021916908373ffffffffffffffffffffffffffffffffffffffff1602179055506402540be4006000803373ffffffffffffffffffffffffffffffffffffffff1673ffffffffffffffffffffffffffffffffffffffff168152602001908152602001600020819055506040805190810160405280600881526020017f48575f746f6b656e0000000000000000000000000000000000000000000000008152506002908051906020019062000159929190620001ca565b5080600360006101000a81548160ff021916908360ff1602179055506040805190810160405280600281526020017f485700000000000000000000000000000000000000000000000000000000000081525060049080519060200190620001c2929190620001ca565b505062000279565b828054600181600116156101000203166002900490600052602060002090601f016020900481019282601f106200020d57805160ff19168380011785556200023e565b828001600101855582156200023e579182015b828111156200023d57825182559160200191906001019062000220565b5b5090506200024d919062000251565b5090565b6200027691905b808211156200027257600081600090555060010162000258565b5090565b90565b61175380620002896000396000f3006080604052600436106100e6576000357c0100000000000000000000000000000000000000000000000000000000900463ffffffff16806304a7ff18146100eb57806306fdde0314610116578063095ea7b3146101a657806323b872dd1461020b578063313ce567146102905780633c73949a146102c157806354fd4d501461038057806370a082311461041057806374d21ae014610467578063898bbb4b146104a857806395d89b411461060e578063a9059cbb1461069e578063c4466a1114610703578063d5f394881461079b578063dd62ed3e146107f2578063e82935da14610869575b600080fd5b3480156100f757600080fd5b506101006108aa565b6040518082815260200191505060405180910390f35b34801561012257600080fd5b5061012b6108b0565b6040518080602001828103825283818151815260200191508051906020019080838360005b8381101561016b578082015181840152602081019050610150565b50505050905090810190601f1680156101985780820380516001836020036101000a031916815260200191505b509250505060405180910390f35b3480156101b257600080fd5b506101f1600480360381019080803573ffffffffffffffffffffffffffffffffffffffff1690602001909291908035906020019092919050505061094e565b604051808215151515815260200191505060405180910390f35b34801561021757600080fd5b50610276600480360381019080803573ffffffffffffffffffffffffffffffffffffffff169060200190929190803573ffffffffffffffffffffffffffffffffffffffff16906020019092919080359060200190929190505050610a40565b604051808215151515815260200191505060405180910390f35b34801561029c57600080fd5b506102a5610ca9565b604051808260ff1660ff16815260200191505060405180910390f35b3480156102cd57600080fd5b5061037e600480360381019080803590602001908201803590602001908080601f0160208091040260200160405190810160405280939291908181526020018383808284378201915050505050509192919290803563ffffffff169060200190929190803590602001908201803590602001908080601f0160208091040260200160405190810160405280939291908181526020018383808284378201915050505050509192919290505050610cbc565b005b34801561038c57600080fd5b50610395610e99565b6040518080602001828103825283818151815260200191508051906020019080838360005b838110156103d55780820151818401526020810190506103ba565b50505050905090810190601f1680156104025780820380516001836020036101000a031916815260200191505b509250505060405180910390f35b34801561041c57600080fd5b50610451600480360381019080803573ffffffffffffffffffffffffffffffffffffffff169060200190929190505050610f37565b6040518082815260200191505060405180910390f35b34801561047357600080fd5b5061049260048036038101908080359060200190929190505050610f7f565b6040518082815260200191505060405180910390f35b3480156104b457600080fd5b506104d360048036038101908080359060200190929190505050611053565b60405180806020018773ffffffffffffffffffffffffffffffffffffffff1673ffffffffffffffffffffffffffffffffffffffff1681526020018663ffffffff1663ffffffff16815260200180602001858152602001848152602001838103835289818151815260200191508051906020019080838360005b8381101561056757808201518184015260208101905061054c565b50505050905090810190601f1680156105945780820380516001836020036101000a031916815260200191505b50838103825286818151815260200191508051906020019080838360005b838110156105cd5780820151818401526020810190506105b2565b50505050905090810190601f1680156105fa5780820380516001836020036101000a031916815260200191505b509850505050505050505060405180910390f35b34801561061a57600080fd5b50610623611262565b6040518080602001828103825283818151815260200191508051906020019080838360005b83811015610663578082015181840152602081019050610648565b50505050905090810190601f1680156106905780820380516001836020036101000a031916815260200191505b509250505060405180910390f35b3480156106aa57600080fd5b506106e9600480360381019080803573ffffffffffffffffffffffffffffffffffffffff16906020019092919080359060200190929190505050611300565b604051808215151515815260200191505060405180910390f35b34801561070f57600080fd5b50610744600480360381019080803573ffffffffffffffffffffffffffffffffffffffff169060200190929190505050611456565b6040518080602001828103825283818151815260200191508051906020019060200280838360005b8381101561078757808201518184015260208101905061076c565b505050509050019250505060405180910390f35b3480156107a757600080fd5b506107b06114ed565b604051808273ffffffffffffffffffffffffffffffffffffffff1673ffffffffffffffffffffffffffffffffffffffff16815260200191505060405180910390f35b3480156107fe57600080fd5b50610853600480360381019080803573ffffffffffffffffffffffffffffffffffffffff169060200190929190803573ffffffffffffffffffffffffffffffffffffffff169060200190929190505050611513565b6040518082815260200191505060405180910390f35b34801561087557600080fd5b506108946004803603810190808035906020019092919050505061159a565b6040518082815260200191505060405180910390f35b60075481565b60028054600181600116156101000203166002900480601f0160208091040260200160405190810160405280929190818152602001828054600181600116156101000203166002900480156109465780601f1061091b57610100808354040283529160200191610946565b820191906000526020600020905b81548152906001019060200180831161092957829003601f168201915b505050505081565b600081600160003373ffffffffffffffffffffffffffffffffffffffff1673ffffffffffffffffffffffffffffffffffffffff16815260200190815260200160002060008573ffffffffffffffffffffffffffffffffffffffff1673ffffffffffffffffffffffffffffffffffffffff168152602001908152602001600020819055508273ffffffffffffffffffffffffffffffffffffffff163373ffffffffffffffffffffffffffffffffffffffff167f8c5be1e5ebec7d5bd14f71427d1e84f3dd0314c0f7b2291e5b200ac8c7c3b925846040518082815260200191505060405180910390a36001905092915050565b6000816000808673ffffffffffffffffffffffffffffffffffffffff1673ffffffffffffffffffffffffffffffffffffffff1681526020019081526020016000205410158015610b0c575081600160008673ffffffffffffffffffffffffffffffffffffffff1673ffffffffffffffffffffffffffffffffffffffff16815260200190815260200160002060003373ffffffffffffffffffffffffffffffffffffffff1673ffffffffffffffffffffffffffffffffffffffff1681526020019081526020016000205410155b1515610b1757600080fd5b816000808573ffffffffffffffffffffffffffffffffffffffff1673ffffffffffffffffffffffffffffffffffffffff16815260200190815260200160002060008282540192505081905550816000808673ffffffffffffffffffffffffffffffffffffffff1673ffffffffffffffffffffffffffffffffffffffff1681526020019081526020016000206000828254039250508190555081600160008673ffffffffffffffffffffffffffffffffffffffff1673ffffffffffffffffffffffffffffffffffffffff16815260200190815260200160002060003373ffffffffffffffffffffffffffffffffffffffff1673ffffffffffffffffffffffffffffffffffffffff168152602001908152602001600020600082825403925050819055508273ffffffffffffffffffffffffffffffffffffffff168473ffffffffffffffffffffffffffffffffffffffff167fddf252ad1be2c89b69c2b068fc378daa952ba7f163c4a11628f55a4df523b3ef846040518082815260200191505060405180910390a3600190509392505050565b600360009054906101000a900460ff1681565b610ce9600660009054906101000a900473ffffffffffffffffffffffffffffffffffffffff166064611300565b50600160075401600781905550600a60008363ffffffff1663ffffffff1681526020019081526020016000206007549080600181540180825580915050906001820390600052602060002001600090919290919091505550600960003373ffffffffffffffffffffffffffffffffffffffff1673ffffffffffffffffffffffffffffffffffffffff1681526020019081526020016000206007549080600181540180825580915050906001820390600052602060002001600090919290919091505550826008600060075481526020019081526020016000206000019080519060200190610dd8929190611682565b503360086000600754815260200190815260200160002060010160006101000a81548173ffffffffffffffffffffffffffffffffffffffff021916908373ffffffffffffffffffffffffffffffffffffffff1602179055508160086000600754815260200190815260200160002060010160146101000a81548163ffffffff021916908363ffffffff160217905550806008600060075481526020019081526020016000206002019080519060200190610e93929190611682565b50505050565b60058054600181600116156101000203166002900480601f016020809104026020016040519081016040528092919081815260200182805460018160011615610100020316600290048015610f2f5780601f10610f0457610100808354040283529160200191610f2f565b820191906000526020600020905b815481529060010190602001808311610f1257829003601f168201915b505050505081565b60008060008373ffffffffffffffffffffffffffffffffffffffff1673ffffffffffffffffffffffffffffffffffffffff168152602001908152602001600020549050919050565b60008060008360075410151515610f9557600080fd5b2f9150600282811515610fa457fe5b06905060016008600086815260200190815260200160002060040160008282540192505081905550610ff9600660009054906101000a900473ffffffffffffffffffffffffffffffffffffffff166001611300565b5080600a026000803373ffffffffffffffffffffffffffffffffffffffff1673ffffffffffffffffffffffffffffffffffffffff168152602001908152602001600020600082825401925050819055508092505050919050565b60606000806060600080600860008881526020019081526020016000206000016008600089815260200190815260200160002060010160009054906101000a900473ffffffffffffffffffffffffffffffffffffffff16600860008a815260200190815260200160002060010160149054906101000a900463ffffffff16600860008b8152602001908152602001600020600201600860008c815260200190815260200160002060030154600860008d815260200190815260200160002060040154858054600181600116156101000203166002900480601f0160208091040260200160405190810160405280929190818152602001828054600181600116156101000203166002900480156111aa5780601f1061117f576101008083540402835291602001916111aa565b820191906000526020600020905b81548152906001019060200180831161118d57829003601f168201915b50505050509550828054600181600116156101000203166002900480601f0160208091040260200160405190810160405280929190818152602001828054600181600116156101000203166002900480156112465780601f1061121b57610100808354040283529160200191611246565b820191906000526020600020905b81548152906001019060200180831161122957829003601f168201915b5050505050925095509550955095509550955091939550919395565b60048054600181600116156101000203166002900480601f0160208091040260200160405190810160405280929190818152602001828054600181600116156101000203166002900480156112f85780601f106112cd576101008083540402835291602001916112f8565b820191906000526020600020905b8154815290600101906020018083116112db57829003601f168201915b505050505081565b6000816000803373ffffffffffffffffffffffffffffffffffffffff1673ffffffffffffffffffffffffffffffffffffffff168152602001908152602001600020541015151561134f57600080fd5b816000803373ffffffffffffffffffffffffffffffffffffffff1673ffffffffffffffffffffffffffffffffffffffff16815260200190815260200160002060008282540392505081905550816000808573ffffffffffffffffffffffffffffffffffffffff1673ffffffffffffffffffffffffffffffffffffffff168152602001908152602001600020600082825401925050819055508273ffffffffffffffffffffffffffffffffffffffff163373ffffffffffffffffffffffffffffffffffffffff167fddf252ad1be2c89b69c2b068fc378daa952ba7f163c4a11628f55a4df523b3ef846040518082815260200191505060405180910390a36001905092915050565b6060600960008373ffffffffffffffffffffffffffffffffffffffff1673ffffffffffffffffffffffffffffffffffffffff1681526020019081526020016000208054806020026020016040519081016040528092919081815260200182805480156114e157602002820191906000526020600020905b8154815260200190600101908083116114cd575b50505050509050919050565b600660009054906101000a900473ffffffffffffffffffffffffffffffffffffffff1681565b6000600160008473ffffffffffffffffffffffffffffffffffffffff1673ffffffffffffffffffffffffffffffffffffffff16815260200190815260200160002060008373ffffffffffffffffffffffffffffffffffffffff1673ffffffffffffffffffffffffffffffffffffffff16815260200190815260200160002054905092915050565b600080600083600754101515156115b057600080fd5b2f91506002828115156115bf57fe5b069050600160086000868152602001908152602001600020600301600082825401925050819055506116286008600086815260200190815260200160002060010160009054906101000a900473ffffffffffffffffffffffffffffffffffffffff166001611300565b5080600a026000803373ffffffffffffffffffffffffffffffffffffffff1673ffffffffffffffffffffffffffffffffffffffff168152602001908152602001600020600082825401925050819055508092505050919050565b828054600181600116156101000203166002900490600052602060002090601f016020900481019282601f106116c357805160ff19168380011785556116f1565b828001600101855582156116f1579182015b828111156116f05782518255916020019190600101906116d5565b5b5090506116fe9190611702565b5090565b61172491905b80821115611720576000816000905550600101611708565b5090565b905600a165627a7a72305820a69212c0af3c3f48efe1aff07a2066edc44a3b8271ff6d7218260ecc93046b120029",
  "source": "pragma solidity ^0.4.25;\n\ncontract Token{\n   \n    //uint256 public totalSupply;\n\n    function balanceOf(address _owner) view public returns (uint256 balance);\n\n    function transfer(address _to, uint256 _value) public returns (bool success);\n\n    function transferFrom(address _from, address _to, uint256 _value) public returns (bool success);\n\n    function approve(address _spender, uint256 _value) public returns (bool success);\n\n    function allowance(address _owner, address _spender) public view returns (uint256 remaining);\n\n    event Transfer(address indexed _from, address indexed _to, uint256 _value);\n\n    event Approval(address indexed _owner, address indexed _spender, uint256 _value);\n}\n\ncontract StandardToken is Token {\n    mapping (address => uint256) balances;\n    mapping (address => mapping (address => uint256)) allowed;\n    \n    function transfer(address _to, uint256 _value) public returns (bool success) {\n        \n        require(balances[msg.sender] >= _value);\n        balances[msg.sender] -= _value;\n        balances[_to] += _value;\n        emit Transfer(msg.sender, _to, _value);\n        return true;\n    }\n\n    function transferFrom(address _from, address _to, uint256 _value) public returns (bool success) {\n        //require(balances[_from] >= _value && allowed[_from][msg.sender] >= \n        // _value && balances[_to] + _value > balances[_to]);\n        require(balances[_from] >= _value && allowed[_from][msg.sender] >= _value);\n        balances[_to] += _value;\n        balances[_from] -= _value;\n        allowed[_from][msg.sender] -= _value;\n        emit Transfer(_from, _to, _value);\n        \n        return true;\n    }\n    \n    function balanceOf(address _owner) view public returns (uint256 balance) {\n        return balances[_owner];\n    }\n\n\n    function approve(address _spender, uint256 _value) public returns (bool success)   \n    {\n        allowed[msg.sender][_spender] = _value;\n        emit Approval(msg.sender, _spender, _value);\n        return true;\n    }\n\n\n    function allowance(address _owner, address _spender) view public returns (uint256 remaining) {\n        return allowed[_owner][_spender];\n    }\n\n}\n\ncontract HumanStandardToken is StandardToken { \n\n    /* Public variables of the token */\n    string public name;\n    uint8 public decimals;\n    string public symbol;\n    string public version = 'HW0.1';\n    address public deployer;\n\n    uint256 public totalNum;\n    \n    struct article {\n        string Headline;\n        address Author;\n        uint32 Class;\n        string IPFSAddress;\n        uint256 like;\n        uint256 unlike;\n    }\n\n    mapping(uint256 => article) allArticles;\n    mapping(address => uint256[]) ownedArticle;\n    mapping(uint32 => uint256[]) classArticle;\n\n    constructor(uint8 _decimalUnits) public {\n        deployer = msg.sender;\n        balances[msg.sender] = 10000000000;\n        //totalSupply = 10000000000;\n        name = \"HW_token\";\n        decimals = _decimalUnits;\n        symbol = \"HW\";\n    }\n\n    function post(string headline, uint32 class, string ipfsAddress) public {\n        transfer(deployer, 100);\n        totalNum = totalNum +1;\n        classArticle[class].push(totalNum);\n        ownedArticle[msg.sender].push(totalNum);\n        \n        allArticles[totalNum].Headline = headline;\n        allArticles[totalNum].Author = msg.sender;\n        allArticles[totalNum].Class = class;\n        allArticles[totalNum].IPFSAddress = ipfsAddress;\n    }\n\n    function readById(uint256 articleID) view public returns(string, address, uint32, string, uint256, uint256) {\n        return ( allArticles[articleID].Headline,\n        allArticles[articleID].Author,\n        allArticles[articleID].Class,\n        allArticles[articleID].IPFSAddress,\n        allArticles[articleID].like,\n        allArticles[articleID].unlike);\n    }\n    \n    function getOwnedArticle (address owner) view public returns(uint256[]) {\n        return ownedArticle[owner];\n    }\n    \n    function like (uint256 articleID) public returns (uint256) {\n        require(totalNum >= articleID);\n        uint256 guest = rand;\n        uint256 isOdd = guest % 2;\n        allArticles[articleID].like += 1;\n        transfer(allArticles[articleID].Author, 1);\n        balances[msg.sender] += 10*isOdd;\n        return isOdd;\n    }\n    \n     function unlike (uint256 articleID) public returns (uint256) {\n        require(totalNum >= articleID);\n        uint256 guest = rand;\n        uint256 isOdd = guest % 2;\n        allArticles[articleID].unlike += 1;\n        transfer(deployer, 1);\n        balances[msg.sender] += 10*isOdd;\n        return isOdd;\n    }\n}",
  "sourcePath": "/home/shanehung/Learning/dexon/hello-dexon/contracts/MyToken.sol",
  "compiler": {
    "name": "dsolc",
    "version": "0.4.25+commit.433aebb7.Emscripten.clang"
  },
  "schemaVersion": "2.0.2",
  "updatedAt": "2018-12-16T06:00:55.081Z"
}