{
  "contractName": "Rand",
  "abi": [
    {
      "constant": false,
      "inputs": [],
      "name": "update",
      "outputs": [],
      "payable": false,
      "stateMutability": "nonpayable",
      "type": "function"
    },
    {
      "constant": true,
      "inputs": [],
      "name": "get",
      "outputs": [
        {
          "name": "",
          "type": "uint256"
        }
      ],
      "payable": false,
      "stateMutability": "view",
      "type": "function"
    }
  ],
  "bytecode": "0x608060405234801561001057600080fd5b5060c88061001f6000396000f3006080604052600436106049576000357c0100000000000000000000000000000000000000000000000000000000900463ffffffff1680636d4ce63c14604e578063a2e62045146076575b600080fd5b348015605957600080fd5b506060608a565b6040518082815260200191505060405180910390f35b348015608157600080fd5b5060886093565b005b60008054905090565b2f6000819055505600a165627a7a72305820941e383cc7be999bc58eb9ee2cac17b8f578de0e2b32333d2374193d505520a70029",
  "source": "contract Rand {\n    uint256 value;\n\n    function update() public {\n        value = rand;\n    }\n\n    function get() view public returns (uint256) {\n        return value;\n    }\n}",
  "sourcePath": "/home/shanehung/Learning/dexon/hello-dexon/contracts/Rand.sol",
  "compiler": {
    "name": "dsolc",
    "version": "0.4.25+commit.433aebb7.Emscripten.clang"
  },
  "schemaVersion": "2.0.2",
  "updatedAt": "2018-12-14T15:00:01.245Z"
}